S01200004F76696E67365F335F612E7372656387
S11300000C947A000C9484000C9484000C94840066
S11300100C9484000C9484000C9484000C9484004C
S11300200C9484000C9484000C9484000C9484003C
S11300300C9484000C9484000C9484000C9484002C
S11300400C9484000C9484000C9484000C9484001C
S11300500C9484000C9484000C9484000C9484000C
S11300600C9484000C9484000C9484000C948400FC
S11300700C9484000C9484000C9484000C948400EC
S11300800C9484000C9484000C9484000C948400DC
S11300900C9484000C9484000C9484000C948400CC
S11300A00C9484000C9484000C9484000C948400BC
S11300B00C9484000C9484000C9484000C948400AC
S11300C00C9484000C9484000C9484000C9484009C
S11300D00C9484000C9484000C9484000C9484008C
S11300E00C9484000C9484000C9484000C9484007C
S11300F00C94840011241FBECFEFCDBFDFE7DEBF19
S11301000E94A1000C94C0000C94000083E0809332
S1130110E605E0E0FAE087E1818381858E7F8187CF
S11301208EEE92E086AB97AB80E197E280AF91AF21
S113013085E080830895E0E6F4E080818160808337
S113014008950E9486000E949B00E0E0FAE010AE51
S113015011AE2FE78AE196E0215080409040E1F70C
S113016000C000008FEF90E080AF91AF2FE78AE1ED
S113017096E0215080409040E1F700C00000E5CFB8
S1070180F894FFCF1D
S9030000FC
