:100000000C947A000C9484000C9484000C9484006A
:100010000C9484000C9484000C9484000C94840050
:100020000C9484000C9484000C9484000C94840040
:100030000C9484000C9484000C9484000C94840030
:100040000C9484000C9484000C9484000C94840020
:100050000C9484000C9484000C9484000C94840010
:100060000C9484000C9484000C9484000C94840000
:100070000C9484000C9484000C9484000C948400F0
:100080000C9484000C9484000C9484000C948400E0
:100090000C9484000C9484000C9484000C948400D0
:1000A0000C9484000C9484000C9484000C948400C0
:1000B0000C9484000C9484000C9484000C948400B0
:1000C0000C9484000C9484000C9484000C948400A0
:1000D0000C9484000C9484000C9484000C94840090
:1000E0000C9484000C9484000C9484000C94840080
:1000F0000C94840011241FBECFEFCDBFDFE7DEBF1D
:100100000E94A1000C94C0000C94000083E0809336
:10011000E605E0E0FAE087E1818381858E7F8187D3
:1001200080EA91E086AB97AB80ED90E080AF91AF35
:1001300085E080830895E0E6F4E08081816080833B
:1001400008950E9486000E949B00E0E0FAE010AE55
:1001500011AE2FE986E891E0215080409040E1F710
:1001600000C000008FEF90E080AF91AF2FE986E8EC
:1001700091E0215080409040E1F700C00000E5CFC1
:04018000F894FFCF21
:00000001FF
