S00E00004F76696E67362E73726563DD
S11300000C947A000C9484000C9484000C94840066
S11300100C9484000C9484000C9484000C9484004C
S11300200C9484000C9486000C9484000C9484003A
S11300300C9484000C9484000C9484000C9484002C
S11300400C9484000C9484000C9484000C9484001C
S11300500C9484000C9484000C9484000C9484000C
S11300600C9484000C9484000C9484000C948400FC
S11300700C9484000C9484000C9484000C948400EC
S11300800C9484000C9484000C9484000C948400DC
S11300900C9484000C9484000C9484000C948400CC
S11300A00C9484000C9484000C9484000C948400BC
S11300B00C9484000C9484000C9484000C948400AC
S11300C00C9484000C9484000C9484000C9484009C
S11300D00C9484000C9484000C9484000C9484008C
S11300E00C9484000C9484000C9484000C9484007C
S11300F00C94840011241FBECFEFCDBFDFE7DEBF19
S11301000E94B5000C94BA000C9400001F920F9248
S11301100FB60F9211240BB60F928F939F93EF9308
S1130120FF93E0E2F4E0948188E08927848381E00E
S113013080930B0AFF91EF919F918F910F900BBECB
S11301400F900FBE0F901F901895E0E0FAE081E049
S113015082878DE0808389E09DE386AB97AB7894BA
S1130160089588E08093210408950E94A5000E94C8
S10B0170B100FFCFF894FFCFAA
S9030000FC
