S00E00004F76696E67372E73726563DC
S11300000C947A000C9484000C9484000C94840066
S11300100C9484000C9484000C9484000C9484004C
S11300200C9484000C9484000C9484000C9484003C
S11300300C9484000C9484000C9484000C9484002C
S11300400C9484000C9484000C9484000C9484001C
S11300500C9484000C9484000C9484000C9484000C
S11300600C9484000C9484000C9484000C948400FC
S11300700C9484000C9484000C9484000C948400EC
S11300800C9484000C9484000C9484000C948400DC
S11300900C9484000C9484000C9484000C948400CC
S11300A00C9484000C9484000C9484000C948400BC
S11300B00C9484000C9484000C9484000C948400AC
S11300C00C9484000C9484000C9484000C9484009C
S11300D00C9484000C9484000C9484000C9484008C
S11300E00C9484000C9484000C9484000C9484007C
S11300F00C94840011241FBECFEFCDBFDFE7DEBF19
S11301000E9417010C9425010C94000080910509AC
S11301108C7139F4809105098370833021F481E076
S1130120089581E0089580E00895E0E0F9E084E036
S11301308083118281E082839DEF95839FE0968383
S113014083830895E0E0F4E08CE08183848708955C
S1130150909105099370933001F190E0880F991FF5
S1130160862B809307098091050985FD0DC0809138
S1130170050982FD09C08091050983FD05C08091B0
S113018005098370833079F70E948600882339F04B
S113019083E08093040980E0089580E0089581E07D
S11301A00895AC0120E026C0FA01E20FF11D908110
S11301B0909308099091050995FD0DC0909105094A
S11301C092FD09C09091050993FD05C09091050920
S11301D09370933079F79091050994FD0FC0909135
S11301E0050994FD07C02F5FE0E8F4E0948182E004
S11301F0892784832617C0F281E0089580E008955A
S1130200CF93DF931F92CDB7DEB7698360E00E947E
S1130210A800882341F061E0CE0101960E94D1003C
S113022093E0909304090F90DF91CF9108950E9479
S113023095000E94A20082E08093810461E08DE435
S11102400E94000180E090E00895F894FFCF42
S9030000FC
