:100000000C947A000C9484000C9484000C9484006A
:100010000C9484000C9484000C9484000C94840050
:100020000C9484000C9484000C9484000C94840040
:100030000C9484000C9484000C9484000C94840030
:100040000C9484000C9484000C9484000C94840020
:100050000C9484000C9484000C9484000C94840010
:100060000C9484000C9484000C9484000C94840000
:100070000C9484000C9484000C9484000C948400F0
:100080000C9484000C9484000C9484000C948400E0
:100090000C9484000C9484000C9484000C948400D0
:1000A0000C9484000C9484000C9484000C948400C0
:1000B0000C9484000C9484000C9484000C948400B0
:1000C0000C9484000C9484000C9484000C948400A0
:1000D0000C9484000C9484000C9484000C94840090
:1000E0000C9484000C9484000C9484000C94840080
:1000F0000C94840011241FBECFEFCDBFDFE7DEBF1D
:100100000E94C4000C94D1000C94000083E0809302
:10011000E605E0E0FAE087E1818381858E7F8187D3
:100120008EEE92E086AB97AB80E197E280AF91AF25
:1001300085E080830895E0E6F4E08081816080833B
:100140000895E0E6F4E08489887F848B8489846064
:10015000848B8489877F848BE0E0F6E085E082836E
:10016000808384E080878081826080830895E0E0DE
:10017000F6E081E08287858580FF05C081E0858784
:1001800080899189089508950E9486000E949B00AD
:100190000E94A1000E94B7008093380A9093390A08
:0601A000F9CFF894FFCF37
:00000001FF
